:0400000079EF1AF08A
:1034AA0040C060F041C061F0120040C05EF041C00F
:1034BA005FF0120040C05CF041C05DF01200416E46
:1034CA00415090EC1AF01200CCEC1AF0426E4250C5
:1034DA00406E416A12009CEC1AF023EC1BF084EC5B
:1034EA001AF0E1EC1AF0120000EE01F03F0EEE6A5B
:1034FA00E806FDE1000EF86E000198EF1CF0600E80
:10350A000E01D36F000ED56F000ED76F030ED96F61
:10351A00000ED86F1200406E0E01C8A997EF1AF07C
:10352A0099EF1AF091EF1AF040C099FF1200000EBD
:10353A000E01DC6F000EDD6F000EDE6F000EDF6F16
:10354A00100EE06F000EE16F1200580E586E000E5A
:10355A004F6E000E506E56C051F057C052F0580EC2
:10356A00536E00EC1BF0120040504202F3CF44F0BD
:10357A00F4CF45F040504302F350452641504202F1
:10358A00F350452644C040F045C041F012000E01F8
:10359A00C8ABD2EF1AF0D4EF1AF0CCEF1AF0000E43
:1035AA00376E9CA2DBEF1AF0DDEF1AF0DFEF1AF0AC
:1035BA009C989C8898501200080E9E6E900E9C6EE5
:1035CA00240E9D6ECF0E9A6E000E9B6E000E406EFC
:1035DA00000E416E5AEC1AF0000E406E000E416E5B
:1035EA005FEC1AF0000E406E000E416E55EC1AF0B8
:1035FA00000E376E120051C054F052C055F010EF51
:10360A001BF04FC04BF050C04CF0540E4D6E53C0DF
:10361A004EF086EC1BF054C0F6FF55C0F7FF0800C9
:10362A00F5500009D8A41CEF1BF01EEF1BF006EFA3
:10363A001BF0000E506E000E4F6E1200080E826EC6
:10364A00000E836E000E846E0F0E876EF80E886E63
:10365A00970E896E070E0F011C6FB80E146F050EB8
:10366A000C6F000E286F000E136F000E0B6F000E0A
:10367A001B6F000E0A6F000E126F000E1A6F096997
:10368A0011691969086910691869080E256F170EFA
:10369A000E01B06F090EF86F120057EF1BF0402AA7
:1036AA00414A422A4050D96EDA6ADF50436E41C01D
:1036BA00F6FF42C0F7FF0800F5504318D8A468EF98
:1036CA001BF06AEF1BF075EF1BF04050D96EDA6AF7
:1036DA00DF50D8A473EF1BF075EF1BF054EF1BF00B
:1036EA004050D96EDA6ADF50436E41C0F6FF42C0DD
:1036FA00F7FF0800F550435C406E416AD8A04106C6
:10370A0012004D50D96EDA6ADECFF6FFDDCFF7FF31
:10371A000800F550250AD8A495EF1BF097EF1BF087
:10372A00ADEF1BF04D50D96EDA6ADE2A000EDD22AB
:10373A00000E2A6E000E296E29C035F02B682C68FF
:10374A004D50D96EDA6ADE2A000EDD22C0EF1BF078
:10375A004D50D96EDA6ADECFF6FFDDCFF7FF0800EB
:10376A00F550426E436A4BC044F04CC045F0C1EC80
:10377A001BF0A5EF1BF0120044504510D8B4C8EF57
:10378A001BF0CAEF1BF0D3EF1BF044504510D8A42E
:10379A00D1EF1BF0D3EF1BF0D8EF1BF0425064ECD3
:1037AA001AF025EF1CF020EE0AF04450D9264550B5
:1037BA00DA22DE50DE10D8B4E5EF1BF0E7EF1BF09B
:1037CA0002EF1CF020EE0AF04450D9264550DA22C6
:1037DA0010EE03F04450E1264550E222DE50E65C4A
:1037EA00E650800A4A6EDE50800A4A58D8B000EF86
:1037FA001CF002EF1CF025EF1CF020EE03F0445001
:10380A00D9264550DA22DECF46F0DDCF47F044C054
:10381A00D9FF45C0DAFFDECF48F0DDCF49F0465088
:10382A004824D96E47504920DA6E42C0DFFF20EEA5
:10383A0003F04450D9264550DA22DE2A000EDD2252
:10384A001200416E4150D8A42DEF1CF02FEF1CF04E
:10385A005FEF1CF08288828A829C829E080E406EEC
:10386A00CA0EE82EFED7402EFCD78298828A828C16
:10387A00829E080E406ECA0EE82EFED7402EFCD756
:10388A008298829A828C828E080E406ECA0EE82E28
:10389A00FED7402EFCD78288829A829C828E080E9E
:1038AA00406ECA0EE82EFED7402EFCD78288828A46
:1038BA00829C829E4104D8A465EF1CF067EF1CF03D
:1038CA0097EF1CF08288829A829C828E080E406E44
:1038DA00CA0EE82EFED7402EFCD78298829A828C96
:1038EA00828E080E406ECA0EE82EFED7402EFCD7F6
:1038FA008298828A828C829E080E406ECA0EE82EB8
:10390A00FED7402EFCD78288828A829C829E080E2D
:10391A00406ECA0EE82EFED7402EFCD78288829AC5
:10392A00829C828E120070EC1AF0DD0E566E3E0EEC
:10393A00576EAAEC1AF04C0E566E3E0E576EAAEC53
:10394A001AF0840E566E3E0E576EAAEC1AF0B10E9D
:10395A00566E3E0E576EAAEC1AF00C0E566E3E0EBE
:10396A00576EAAEC1AF0C00E566E3D0E576EAAECB0
:10397A001AF0820E5B6EDE0EE82EFED75B2EFCD7A7
:10398A0069EC1AF040C033F041C034F033C036F06D
:10399A000A0E3618D8B4D4EF1CF0D6EF1CF0F9EFA3
:1039AA001CF00D0E3618D8B4DDEF1CF0DFEF1CF05A
:1039BA00F9EF1CF03150380FD96EDA6A36C0DFFFE2
:1039CA00314A322A32BEF3EF1CF0325009E1090EB5
:1039DA00315CD8A0F3EF1CF0F5EF1CF0F9EF1CF006
:1039EA00000E326E000E316E0A0E3618D8A400EFA1
:1039FA001DF002EF1DF0C5EF1CF03150380FD96EE3
:103A0A00DA6ADF6A000E326E000E316E380E596EB7
:103A1A009BEC1DF0C5EF1CF000EF00F0000E4C6EA1
:103A2A00000E4B6E000E4A6E1CEF1DF0462A4650E1
:103A3A00D96EDA6A200EDE18D8B426EF1DF028EF08
:103A4A001DF01BEF1DF04650D96EDA6ADF50486E42
:103A5A00F70E4826040E486435EF1DF037EF1DF0C7
:103A6A001BEF1DF04650D96EDA6A2D0EDE18D8A467
:103A7A0041EF1DF043EF1DF048EF1DF0010E4A6EB5
:103A8A00462A71EF1DF04650D96EDA6A2B0EDE18FF
:103A9A00D8A452EF1DF054EF1DF071EF1DF045EF61
:103AAA001DF04BC040F04CC041F0000E436E0A0EB0
:103ABA00426EB9EC1AF04650D96EDA6ADF50486E97
:103ACA004850405E000E415A300E40244B6E000EA4
:103ADA0041204C6E45EF1DF04650D96EDA6ADF5030
:103AEA00486ED00E4826090E48647EEF1DF080EF1E
:103AFA001DF056EF1DF04A50D8A486EF1DF088EF4E
:103B0A001DF096EF1DF04BC048F04CC049F0481E1E
:103B1A00491E484A492A48C046F049C047F09AEF28
:103B2A001DF04BC046F04CC047F0120059C040F09F
:103B3A00F80E416E3F0E426E52EC1BF0405041109F
:103B4A00D8A4AAEF1DF0ACEF1DF0B5EF1DF08384E9
:103B5A00220E566E3F0E576EAAEC1AF0DEEF1EF0DA
:103B6A0059C040F0F20E416E3F0E426E52EC1BF00D
:103B7A0040504110D8A4C4EF1DF0C6EF1DF0CFEF9E
:103B8A001DF08382970E566E3F0E576EAAEC1AF0FE
:103B9A00DEEF1EF059C040F0EB0E416E3F0E426E52
:103BAA0052EC1BF040504110D8A4DEEF1DF0E0EFBC
:103BBA001DF0E9EF1DF08394030E566E3F0E576E0B
:103BCA00AAEC1AF0DEEF1EF059C040F0E40E416E86
:103BDA003F0E426E52EC1BF040504110D8A4F8EF51
:103BEA001DF0FAEF1DF003EF1EF083926D0E566E74
:103BFA003F0E576EAAEC1AF0DEEF1EF059C040F0E5
:103C0A00DD0E416E3F0E426E52EC1BF040504110E9
:103C1A00D8A412EF1EF014EF1EF01FEF1EF08380DF
:103C2A0083828384570E566E3F0E576EAAEC1AF0A3
:103C3A00DEEF1EF059C040F0D50E416E3F0E426EC7
:103C4A0052EC1BF040504110D8A42EEF1EF030EF7A
:103C5A001EF03BEF1EF0839083928394400E566EC3
:103C6A003F0E576EAAEC1AF0DEEF1EF059C046F06E
:103C7A0013EC1DF047AE4BEF1EF0E00E475CD8A0E8
:103C8A0049EF1EF04BEF1EF0D6EF1EF059C046F07A
:103C9A0013EC1DF047BE5CEF1EF04604200E475899
:103CAA00D8B05AEF1EF05CEF1EF0D6EF1EF059C0E6
:103CBA0046F013EC1DF046504710D8B467EF1EF0DB
:103CCA0069EF1EF0D6EF1EF059C046F013EC1DF056
:103CDA0046C02FF047C030F030BE78EF1EF076EFC6
:103CEA001EF0A1EF1EF0AB0E566E3F0E576EAAECF9
:103CFA001AF0000E2E6E000E2D6E8AEF1EF0010EC7
:103D0A0026EC1CF02D06D8A02E062D502F5C305024
:103D1A00800A5A6E2E50800A5A58D8A097EF1EF081
:103D2A0099EF1EF084EF1EF0CD0E566E3F0E576EC1
:103D3A00AAEC1AF0DEEF1EF030BEACEF1EF03050E7
:103D4A0008E12F04D8A0ACEF1EF0AEEF1EF0DEEFB4
:103D5A001EF0BC0E566E3F0E576EAAEC1AF0000EFD
:103D6A002E6E000E2D6EBFEF1EF0000E26EC1CF01C
:103D7A002D4A2E2A2F502D5C2E50800A5A6E305012
:103D8A00800A5A58D8A0CCEF1EF0CEEF1EF0BAEF38
:103D9A001EF0CD0E566E3F0E576EAAEC1AF0DEEFED
:103DAA001EF0820E566E3F0E576EAAEC1AF0DEEF28
:103DBA001EF012000003456E7465722061206E6564
:103DCA006761746976652076616C756520666F72C5
:103DDA0020636F756E7465722D636C6F636B7769A0
:103DEA007365207475726E73206F6620746865201F
:103DFA0073746570706572206D6F746F722E200D0A
:103E0A000A00456E746572206120706F7369746967
:103E1A0076652076616C756520666F7220636C6FBB
:103E2A00636B77697365207475726E73206F662091
:103E3A0073746570706572206D6F746F722E200DC9
:103E4A000A0027456E4361742F44697343617427DE
:103E5A0020746F20656E61626C652F64697361629C
:103E6A006C6520546865726D696F6E696320436181
:103E7A0074686F64652E200D0A0027456E496F6EBF
:103E8A002F446973496F6E2720746F20656E6162D3
:103E9A006C652F64697361626C6520496F6E697A1B
:103EAA0065722E200D0A0027456E426F74682F44F2
:103EBA006973426F74682720746F20656E61626C43
:103ECA00652F64697361626C6520626F74682E2065
:103EDA000D0A005049432052494F542044726976D2
:103EEA00652070726F746F7479706520696E74657D
:103EFA0072666163652E0D0A00546865726D696F9A
:103F0A006E696320436174686F64652044697361F4
:103F1A00626C65642E0D0A00546865726D696F6E75
:103F2A00696320436174686F646520456E61626CE1
:103F3A0065642E0D0A00436F6D706F6E656E747343
:103F4A002044697361626C65642E0D0A00436F6DCB
:103F5A00706F6E656E747320456E61626C65642E57
:103F6A000D0A00496F6E697A65727320446973613C
:103F7A00626C65642E0D0A00496E636F7272656326
:103F8A007420636F6D6D616E642E0D0A00496F6E49
:103F9A00697A65727320456E61626C65642E0D0ADA
:103FAA00004F70656E696E672076616C76652E0DBE
:103FBA000A00436C6F73696E672076616C76652EB2
:103FCA000D0A00446F6E652E0D0A00446973426F34
:103FDA00746800456E426F746800446973496F6E75
:103FEA000044697343617400456E496F6E00456E03
:053FFA004361740000AA
:020000040030CA
:0C000000ECFFFFFF9FFFFFDFFFFFFFFF93
:00000001FF
